:100000000C9414010C94A9040C9482040C943C01EB
:100010000C943C010C943C010C943C010C943C016C
:100020000C943C010C943C010C943C010C9456063D
:100030000C943C010C943C010C943C010C943C014C
:100040000C9438040C943C010C94F6040C94D004E9
:100050000C943C010C943C010C943C010C943C012C
:100060000C9428050C943C015465737420666169F6
:100070006C656400204D41585F5448524F54544CB5
:10008000455F50455243454E543A20004D41585F1C
:10009000504F5745523A2000554E4558504543540D
:1000A000454420504F574552200044454255472073
:1000B0004D4F444520504F574552212121200021CA
:1000C0002121212121212121212121212121212120
:1000D000212121464C59494E47204D4F444520503F
:1000E0004F57455221212121212121212121212147
:1000F00021212121212121212121212121212121F0
:10010000212121212121212120005278206E6F748C
:100110002072656164792C2074727920616761694D
:100120006E2C20706C6561736520776169742E2078
:100130000053657475702046696E69736865640064
:10014000204D41585F5448524F54544C455F5045E0
:100150005243454E543A20004D41585F504F574549
:10016000523A2000554E455850454354454420507E
:100170004F57455220004445425547204D4F444576
:1001800020504F574552212121200021212121219A
:10019000212121212121212121212121212121462A
:1001A0004C59494E47204D4F444520504F574552DA
:1001B000212121212121212121212121212121212F
:1001C000212121212121212121212121212121211F
:1001D000212121212000000000080002010000036D
:1001E00004070000000000000000000000002500DF
:1001F00028002B0000000000240027002A0004042F
:1002000004040404040402020202020203030303BE
:10021000030301020408102040800102040810209A
:10022000010204081020410D11241FBECFEFD8E0B9
:10023000DEBFCDBF11E0A0E0B1E0EEE5F2E202C02A
:1002400005900D92AE37B107D9F724E0AEE7B1E0E3
:1002500001C01D92AF3EB207E1F711E0C4E1D1E069
:1002600004C02197FE010E94DF0EC331D107C9F7F8
:100270000E941B0A0C942D110C94000008950895FF
:100280000895CF92DF92EF92FF920F931F93CF9337
:10029000DF936C017A018B01C0E0D0E0CE15DF0561
:1002A00081F0D8016D918D01D601ED91FC91019005
:1002B000F081E02DC6010995892B11F02196EECF32
:1002C0007E01C701DF91CF911F910F91FF90EF90B9
:1002D000DF90CF900895FC01538D448D252F30E0A1
:1002E000842F90E0821B930B541710F0CF96089543
:1002F00001970895FC01918D828D981761F0828D90
:10030000DF01A80FB11D5D968C91928D9F5F9F7349
:10031000928F90E008958FEF9FEF0895FC01918DEB
:10032000828D981731F0828DE80FF11D858D90E058
:1003300008958FEF9FEF0895FC01918D228D892FF5
:1003400090E0805C9F4F821B91098F7399270895DD
:1003500082E892E00E949C0121E0892B09F420E0D0
:10036000822F0895FC01848DDF01A80FB11DA35ACF
:10037000BF4F2C91848D90E001968F739927848FC5
:10038000A689B7892C93A089B1898C9183708064E8
:100390008C93938D848D981306C00288F389E02D89
:1003A00080818F7D80830895EF92FF920F931F933A
:1003B000CF93DF93EC0181E0888F9B8D8C8D981318
:1003C00005C0E889F989808185FD26C0F62E0B8D50
:1003D00010E00F5F1F4F0F731127E02E8C8DE81276
:1003E0000CC00FB607FCFACFE889F989808185FF38
:1003F000F5CFCE010E94B201F1CF8B8DFE01E80F47
:10040000F11DE35AFF4FF0829FB7F8940B8FEA89F2
:10041000FB89808180620AC09FB7F894EE89FF89CA
:100420006083E889F98980818370806480839FBFBD
:1004300081E090E0DF91CF911F910F91FF90EF90BD
:100440000895CF93DF93EC01888D8823C9F0EA8962
:10045000FB89808185FD05C0A889B9898C9186FDBD
:100460000FC00FB607FCF5CF808185FFF2CFA889BA
:10047000B9898C9185FFEDCFCE010E94B201E7CF03
:10048000DF91CF91089580E090E0892B29F00E94C0
:10049000A80181110C940000089585ED8093BC00A3
:1004A0008091BC0084FDFCCF10925E0208954091C3
:1004B000E601262F30E0240F311D21323105DCF416
:1004C00020915E022430C9F4FC0180E090E08617A0
:1004D00058F43091E6012191DC01AA53BE4FA30FDD
:1004E000B11D2C930196F3CF8091E601680F6093C4
:1004F000E60180E0089581E0089582E0089508957E
:10050000E091170280911602E81730F4F0E0E85EFF
:10051000FD4F808190E008958FEF9FEF08959091B7
:10052000170280911602981750F4E92FF0E0E85E68
:10053000FD4F208130E09F5F9093170202C02FEFA4
:100540003FEFC90108958091160290E020911702B3
:10055000821B91090895CF92DF92EF92FF920F9341
:100560001F93CF93DF937C01CB018A0120915F021F
:10057000222389F0EB016B01C40ED51ECC15DD05DD
:1005800069F06991D701ED91FC910190F081E02D26
:10059000C7010995F3CF642F0E945702C801DF916C
:1005A000CF911F910F91FF90EF90DF90CF90089522
:1005B000CF93DF931F92CDB7DEB7698320915F029F
:1005C0002223D1F020918102203240F021E030E05E
:1005D000FC013383228380E090E015C080916002AB
:1005E000E82FF0E0EF59FD4F998190838F5F809362
:1005F00060028093810205C061E0CE0101960E94F5
:10060000570281E090E00F90DF91CF910895089517
:1006100080E090E008958091BE01811127C080E1C3
:10062000E2E1F1E0AEE7B1E001900D928A95E1F7E9
:1006300080E1E2E2F1E0AEE8B1E001900D928A954E
:10064000E1F780E1E2E2F1E0AEE9B1E001900D9284
:100650008A95E1F780E1E2E3F1E0AEEAB1E00190F2
:100660000D928A95E1F781E08093BE018EE791E0DB
:100670000895FC01DB014D915D916D917C91139783
:10068000408351836283738314964D915D916D9184
:100690007C911797448355836683778318964D9191
:1006A0005D916D917C911B9740875187628773871D
:1006B0001C968D919D910D90BC91A02D848795875E
:1006C000A687B7870895CF93DF93EC010E944B096B
:1006D0000E94FF0F688379838A839B830E944B0962
:1006E0000E94FF0F6C837D838E839F83DF91CF9168
:1006F00008958F929F92AF92BF92CF92DF92EF9226
:10070000FF92CF93DF930E9426090E94FF0F4B01B7
:100710005C016093D8047093D9048093DA049093B9
:10072000DB042091D4043091D5044091D60450913B
:10073000D7040E94E50E6B017C016093DC0470938A
:10074000DD048093DE049093DF048092D4049092C1
:10075000D504A092D604B092D7048091D104882306
:1007600091F08091D2049091D304873091055CF48C
:10077000880F991FEC01C052DB4FC701B6010E94E0
:10078000C90F7983688320E030E04AE755E4C70168
:10079000B6010E94B110181644F41092D3041092BE
:1007A000D20481E08093D1040CC08091D204909156
:1007B000D304863091052CF401969093D304809352
:1007C000D204DF91CF91FF90EF90DF90CF90BF9058
:1007D000AF909F908F900895DF92EF92FF920F93CA
:1007E0001F93CF93DF9300D0CDB7DEB7182FF62E2F
:1007F000E42ED22E28EE33E0AE014E5F5F4F0E9412
:100800005709882341F14E2D50E04D1951094F5F92
:100810005F4F81E090E002C0880F991FDA94E2F701
:100820000197042E01C0880F0A94EAF7202F01C017
:10083000220F4A95EAF7082F00959A81092382230F
:10084000802B8A838983AE014F5F5F4F6F2D812F8D
:100850000E94110701C080E00F900F90DF91CF91AF
:100860001F910F91FF90EF90DF9008950E94281143
:100870001F920F920FB60F9211242F933F938F93D5
:100880009F93AF93BF9380910E0290910F02A0911E
:100890001002B091110230910D0223E0230F2D3789
:1008A00020F40196A11DB11D05C026E8230F029674
:1008B000A11DB11D20930D0280930E0290930F0293
:1008C000A0931002B0931102809112029091130232
:1008D000A0911402B09115020196A11DB11D809343
:1008E000120290931302A0931402B0931502BF91C9
:1008F000AF919F918F913F912F910F900FBE0F90CD
:100900001F9018951F920F920FB60F9211242F93DC
:100910003F934F935F936F937F938F939F93AF9387
:10092000BF93EF93FF93E0910301F09104010995C8
:10093000FF91EF91BF91AF919F918F917F916F91B7
:100940005F914F913F912F910F900FBE0F901F908D
:1009500018951F920F920FB60F9211242F933F9369
:100960004F935F936F937F938F939F93AF93BF93B7
:10097000EF93FF93E0910101F09102010995FF913E
:10098000EF91BF91AF919F918F917F916F915F9107
:100990004F913F912F910F900FBE0F901F90189580
:1009A0001F920F920FB60F9211242F933F934F93E4
:1009B0005F936F937F938F939F93AF93BF93EF93C7
:1009C000FF9382E892E00E94B201FF91EF91BF9104
:1009D000AF919F918F917F916F915F914F913F91D7
:1009E0002F910F900FBE0F901F9018951F920F928E
:1009F0000FB60F9211242F938F939F93EF93FF9332
:100A0000E0919202F09193028081E0919802F0913E
:100A1000990282FD12C0908180919B028F5F8F733B
:100A200020919C02821751F0E0919B02F0E0EE577A
:100A3000FD4F958F80939B0201C08081FF91EF91C4
:100A40009F918F912F910F900FBE0F901F9018952F
:100A50001F920F920FB60F9211242F933F934F9333
:100A60005F936F937F938F939F93AF93BF93EF9316
:100A7000FF938091B900887F803609F49CC068F5A7
:100A8000883209F45BC090F4803109F454C038F422
:100A9000882309F4F6C0883009F44DC0F6C08831C7
:100AA00009F44CC0803209F45DC0EFC0803409F411
:100AB00068C048F4803309F455C0883309F0E5C0B4
:100AC00080935C02D8C0803509F44FC0883509F4A2
:100AD0005DC0883409F0D9C0D6C0883909F4C7C0D0
:100AE000A8F4883709F467C038F4883609F463C07D
:100AF000803709F460C0C9C0883809F4B8C08039AB
:100B000009F45FC0803809F0C0C05BC0803B09F4C5
:100B100086C038F4803A09F466C0883A09F47FC088
:100B2000B4C0803C09F4A7C0883C09F4A4C0883B49
:100B300009F48AC0AAC08091390210C090915B026A
:100B400080915A02981770F5E0915B0281E08E0F58
:100B500080935B02F0E0E65CFD4F80818093BB00F8
:100B600085EC86C080935C028EC0E0915B0281E0E0
:100B70008E0F80935B028091BB00F0E0E65CFD4F3E
:100B8000808390915B0280915A026EC0E0915B027B
:100B900081E08E0F80935B028091BB00F0E0E65C09
:100BA000FD4F808380915D0281116DC081E0809353
:100BB000380284EA61C083E080935E0210920802EA
:100BC000CFCF80910802803208F051C0E091080236
:100BD00081E08E0F809308028091BB00F0E0E85125
:100BE000FE4F8083BDCF85EC8093BC0010925E02E7
:100BF00080910802803230F4E0910802F0E0E85180
:100C0000FE4F10826091080270E0E0910902F091BD
:100C10000A0288EE91E009951092080236C084E03D
:100C200080935E021092E7011092E601E0910B02C0
:100C3000F0910C0209958091E601811105C081E0D7
:100C40008093E6011092C601E091E70181E08E0FEA
:100C50008093E701F0E0EA53FE4F80818093BB0070
:100C60009091E7018091E601981708F479CF85E823
:100C70008093BC000AC085EC8093BC0010925E0299
:100C800004C010925C020E944D02FF91EF91BF914F
:100C9000AF919F918F917F916F915F914F913F9114
:100CA0002F910F900FBE0F901F9018951F920F92CB
:100CB0000FB60F9211248F939F9380910001882388
:100CC00041F010929F0310929E0380E18BB9109225
:100CD000000180919E0390919F03009749F49BB17E
:100CE00080E389278BB980918C0390918D0325C077
:100CF0008130910549F49BB180E689278BB98091B9
:100D000094039091950319C0029749F49BB180EC2C
:100D100089278BB980919C0390919D030EC09BB154
:100D200080E989278BB98FEF9FEF90939F03809382
:100D30009E03809184039091850390938900809312
:100D40008800109285001092840080919E039091FB
:100D50009F03019690939F0380939E039F918F9191
:100D60000F900FBE0F901F901895282F3091810281
:100D7000313208F04AC080915E028111FCCF90911F
:100D8000EE0442E040935E0220935D022FEF209339
:100D90005C0210925B0230935A02E1E6F2E0AAE3B1
:100DA000B2E020E0321721F041914D932F5FFACF4E
:100DB0001092390220913902990F922B90933902A7
:100DC00090913802913061F410923802909139027A
:100DD0009093BB009091BC0093FDF8CF95EC01C0BF
:100DE00095EE9093BC0090915E029230E1F3909169
:100DF0005C029F3F79F080915C02803241F08091EB
:100E00005C02803331F084E005C081E003C082E001
:100E100001C083E0109260021092810210925F0282
:100E20000895CF93DF93EA0191E090935F0280935E
:100E3000EE0410926002109281028FE193E00E9412
:100E4000D80268818FE193E00E94D80281E00E947D
:100E5000B50691E0811190E0892FDF91CF9108953F
:100E6000009769F0FC0101900020E9F73197AF018C
:100E7000481B590BBC0182E892E00C94410180E0D0
:100E800090E008958F929F92AF92BF920F931F931D
:100E9000CF93DF93CDB7DEB7A1970FB6F894DEBF3F
:100EA0000FBECDBF19A2423008F44AE08E010F5D9B
:100EB0001F4F842E912CA12CB12CA50194010E94CE
:100EC000A70EE62FB901CA0101501109EA3014F446
:100ED000E05D01C0E95CD801EC93232B242B252B8A
:100EE00061F7C8010E943007A1960FB6F894DEBFE3
:100EF0000FBECDBFDF91CF911F910F91BF90AF90EB
:100F00009F908F900895CF92DF92EF92FF92CF93B0
:100F1000DF936B017C016DE282E892E00E94D401D4
:100F2000EC0166277727CB016C197D098E099F0993
:100F30004AE00E9442078C0F9D1FDF91CF91FF90E6
:100F4000EF90DF90CF9008950F931F93CF93DF938F
:100F50008C01C0E0D0E0F801EC0FFD1F6491662326
:100F600041F082E892E00E94D401892B11F0219691
:100F7000F2CFCE01DF91CF911F910F910895CF93C2
:100F8000DF930E94A407EC018FE691E00E943007F6
:100F90008C0F9D1FDF91CF910895BC01990F880B95
:100FA000990B97FD0C9483074AE00C944207CF936A
:100FB000DF93BC01990F880B990B97FF03C00E9428
:100FC000830703C04AE00E944207EC018FE691E0EC
:100FD0000E9430078C0F9D1FDF91CF91089590E004
:100FE000FC01EE5EFD4F2491FC01E250FE4F849126
:100FF000882399F090E0880F991FFC01EC50FE4F78
:10100000A591B491FC01E651FE4F859194918FB763
:10101000F894EC91E22BEC938FBF08958F929F92FE
:10102000AF92BF92CF92DF92EF92FF920F931F93F6
:10103000CF93DF936B017C01142F9B01AC010E94C5
:101040002311882319F082E791E027C04601570158
:10105000E894B7F82FEF3FEF4FE75FE7C501B40122
:101060000E94231181110DC02FEF3FEF4FE75FE783
:10107000C501B4010E94520F18161CF486E791E0D6
:101080000CC02FEF3FEF4FE75FE4C701B6010E94AE
:10109000B110181684F48AE791E0DF91CF911F9187
:1010A0000F91FF90EF90DF90CF90BF90AF909F9007
:1010B0008F900C9430072FEF3FEF4FE75FECC701A5
:1010C000B6010E94520F87FDE6CF20E030E0A90173
:1010D000C701B6010E94520F87FF0BC06DE282E884
:1010E00092E00E94D401EC01F7FAF094F7F8F09442
:1010F00002C0C0E0D0E000E060E070E080E09FE38C
:10110000101741F020E030E040E251E40E94570F18
:101110000F5FF6CFA70196010E94E60E6B017C01DE
:101120000E94D00F4B015C014AE00E944207C80FA9
:10113000D91F1123B9F1C501B4010E94FF0F9B0112
:10114000AC01C701B6010E94E50E6B017C016EE2A5
:1011500082E892E00E94D401C80FD91F20E030E05D
:1011600040E251E4C701B6010E94B6104B015C0198
:101170000E94D00F6B01E12CF12C4AE0C701B601AF
:101180000E944207C80FD91FC701B6010E94FF0F76
:101190009B01AC01C501B4010E94E50E6B017C010D
:1011A0001150E1F6CE01DF91CF911F910F91FF9089
:1011B000EF90DF90CF90BF90AF909F908F90089569
:1011C00090E0FC01EA52FE4F2491FC01EE5EFD4FDF
:1011D0003491FC01E250FE4FE491EE23B1F1222361
:1011E00039F1233091F038F42130A9F0223001F5A3
:1011F00084B58F7D12C0273091F02830A1F02430C3
:10120000B9F4809180008F7D03C0809180008F773A
:10121000809380000DC084B58F7784BD09C0809114
:10122000B0008F7703C08091B0008F7D8093B000B5
:10123000F0E0EE0FFF1FE651FE4FA591B4918FB77E
:10124000F894EC91E32BEC938FBF08953FB7F8949B
:101250008091120290911302A0911402B091150294
:1012600026B5A89B05C02F3F19F00196A11DB11D01
:101270003FBFBA2FA92F982F8827820F911DA11D3C
:10128000B11DBC01CD0142E0660F771F881F991F79
:101290004A95D1F708952FB7F89460910E02709196
:1012A0000F0280911002909111022FBF08955F925A
:1012B0006F927F928F929F92AF92BF92CF92DF9266
:1012C000EF92FF920F931F93CF93DF93182FB62EB9
:1012D0003A01E9010E944B096B017C0101E0009396
:1012E0005F021093EE0410926002109281026B2D47
:1012F0008FE193E00E94D80281E00E94B50600933E
:101300005F02109260021092810280915E02811150
:10131000FCCF81E080935E0280935D029FEF90930B
:101320005C0210925B0210925A0280933902809103
:101330003902110F182B1093390280913802813035
:1013400061F410923802809139028093BB00809141
:10135000BC0083FDF8CF85EC01C085EE8093BC0016
:1013600080915E028130E1F380915B02811103C0C4
:1013700090915B0201C091E0EAE3F2E0A8E1B2E003
:1013800080E0891721F021912D938F5FFACF109281
:10139000170280931602512C4E01A12CB12C909172
:1013A0001602809117029817E1F0209769F00E94C9
:1013B0004B09DC01CB018C199D09AE09BF098815C9
:1013C0009905AA05BB0568F48301050D111D57FC9D
:1013D0001A958FE193E00E948F02F8018083539465
:1013E000DECF81E00E94B5062097A1F00E944B0954
:1013F000DC01CB018C199D09AE09BF098E0120E0EB
:1014000030E080179107A207B30720F0151414F0FD
:1014100055245A94852DDF91CF911F910F91FF9004
:10142000EF90DF90CF90BF90AF909F908F907F9084
:101430006F905F900895CF93DF9300D0CDB7DEB764
:10144000789484B5826084BD84B5816084BD85B59F
:10145000826085BD85B5816085BD80916E008160AB
:1014600080936E0010928100809181008260809351
:101470008100809181008160809381008091800053
:101480008160809380008091B10084608093B1007E
:101490008091B00081608093B00080917A00846078
:1014A00080937A0080917A00826080937A008091A4
:1014B0007A00816080937A0080917A0080688093BE
:1014C0007A001092C1001092800081E08093810028
:1014D000109285001092840080917403909175039E
:1014E00054E0880F991F5A95E1F7909389008093F3
:1014F0008800B19A80916F00826080936F0089E7C5
:1015000093E09093020180930101809169008360D0
:1015100080936900E89AE0919202F091930282E050
:101520008083E0918E02F0918F021082E091900210
:10153000F091910288E0808310929A02E0919602E5
:10154000F091970286E08083E0919402F0919502F9
:10155000808180618083E0919402F0919502808186
:1015600088608083E0919402F09195028081806888
:101570008083E0919402F091950280818F7D808339
:1015800084E090E090937F0380937E030E94EF07B6
:1015900085E090E090938703809386030E94EF0795
:1015A00086E090E090938F0380938E030E94EF0774
:1015B00087E090E090939703809396030E94EF0753
:1015C00060917403709175038B01E4E0000F111FAB
:1015D000EA95E1F7072E000C880B990B0E94011089
:1015E0002CE633E0ECE4F3E011AF00AF64AB75AB95
:1015F00086AB97AB38962E173F07B1F710921702BC
:1016000010921602109260021092810210925E02F5
:1016100081E080935D021092380282E10E94E0082E
:1016200083E10E94E0088091B9008E7F8093B90029
:101630008091B9008D7F8093B90088E48093B800D1
:1016400085E48093BC008EE391E090930C0280933C
:101650000B028FE391E090930A02809309028CE0E1
:101660008093B8008091D104811149C08AE091E053
:101670000E94BF0760917403709175038B0144E071
:10168000000F111F4A95E1F7072E000C880B990BEC
:101690000E940110ECE4F3E011AF00AF64AB75AB56
:1016A00086AB97AB389623E0EC36F207A9F7A895FE
:1016B0000E9426094B015C0138ECC32ED12CE12C91
:1016C000F12C0E942609DC01CB0188199909AA098D
:1016D000BB09883E9340A105B10598F381E0C81A83
:1016E000D108E108F108E8EE8E0EE3E09E1EA11C91
:1016F000B11CC114D104E104F10419F7B3CF01E026
:1017000023E042E06BE68091B6040E94EC0300E027
:1017100022E044E06BE18091B6040E94EC0322E0F9
:1017200044E06CE18091B6040E94EC031091B60491
:1017300028EE33E0AE014F5F5F4F6BE6812F0E94D2
:10174000570989818F7B89838A83AE014E5F5F4F02
:101750006BE6812F0E94110783E393E3A3E0B2E4D9
:101760008093A4049093A504A093A604B093A70427
:1017700002E022E044E06BE18091B6040E94EC03B9
:1017800080E090E0A0E8B5E48093A4049093A504E1
:10179000A093A604B093A70422E044E06CE18091FA
:1017A000B6040E94EC03A89528EE33E0AE014F5F2B
:1017B0005F4F65E78091B6040E945709882339F08E
:1017C00089818E7790E0959587958093B704809175
:1017D000B704843321F088E690E00E94BF0780912F
:1017E000760390917703843427E0920709F022C1B1
:1017F00060917A0370917B03072E000C880B990B84
:101800000E94011020E030E04AEB54E40E94B11045
:1018100087FF0DC188E990E00E94BF078CE890E047
:101820000E94A40780917603909177030E94CD07D0
:1018300084E790E00E94A407809178039091790357
:101840000E94D7070E940B03BC0180EA93E00E942C
:1018500039030E940B03BC018CEB93E00E94390317
:101860000E940B03BC01605F7F4F84EF93E00E94F6
:1018700039030E940B03BC01605F7F4F80E194E05D
:101880000E9439030E940B038C0180E480937C004A
:1018900080917A00806480937A0080917A0086FD3E
:1018A000FCCFA091780080917900B0E0B82B24EFB4
:1018B00031E00E94D80E2FEF33E040E050E00E946C
:1018C000880ECA01B9010E940110F80164AB75AB22
:1018D00086AB97AB86E691E00E9430070E940B032F
:1018E000FC0164A975A986A997A942E00E940E0887
:1018F0008FE691E00E9430070E940B03BC01605DFF
:101900007F4F8CE294E00E9439030E940B03BC01DC
:10191000605E7F4F88E494E00E9439030E940B03CD
:10192000BC01605E7F4F84E694E00E9439030E9410
:101930000B03BC01605D7F4F80E894E00E94390397
:1019400085E091E00E94630380912B030E94EF07E2
:101950008FE293E00E9463038CE393E00E946303B1
:101960009EE088E10FB6F894A895809360000FBEC2
:101970009093600080917603909177038434F7E030
:101980009F0709F061C060917A0370917B03072E75
:10199000000C880B990B0E94011020E030E04AEB0C
:1019A00054E40E94B11087FF4CC084E691E00E948D
:1019B000BF0788E591E00E94A4078091760390918B
:1019C00077030E94CD0780E491E00E94A4078091F4
:1019D0007803909179030E94D70781E391E00E94F8
:1019E000BF070E944B090E94FF0F2091090130910F
:1019F0000A0140910B0150910C010E94E50E609389
:101A00000D0170930E0180930F01909310010E94BD
:101A10004B090E94FF0F6093090170930A018093A4
:101A20000B0190930C01A8950E944302DACF8FEB33
:101A300090E0F2CE853195400CF0ECCE8AEA90E051
:101A4000EBCE8BE891E0B3CF853195400CF0ADCF74
:101A500086E791E0ACCFFC011082118212821382E2
:101A60001486158616861786108A118A128A138A9A
:101A7000148A158A168A178A108E118E128E138E6A
:101A80000895E2E8F2E01382128288EE93E0A0E08B
:101A9000B0E084839583A683B78326E431E0318365
:101AA000208325EC30E03587248724EC30E037872D
:101AB000268720EC30E0318B208B21EC30E0338B1B
:101AC000228B22EC30E0358B248B26EC30E0378BF8
:101AD000268B118E128E138E148EEFE1F3E013829B
:101AE000128284839583A683B78388E591E09183EE
:101AF0008083ECE4F3E080E090E0A0E0BFE380834B
:101B00009183A283B3831782168215861486168664
:101B10001786108A118A128A138A148A158A168ADD
:101B2000178A108E118E128E138E148E158E168EAD
:101B3000178E10A211A212A213A214A215A217A20C
:101B400016A284E294E091A780A784E497E093A78B
:101B500082A724E630E035A724A797A786A78CE4C0
:101B600094E091AB80AB8FEF9FEF90939F038093B6
:101B70009E0380EA93E00E942B0D8CEB93E00E9481
:101B80002B0D88ED93E00E942B0D84EF93E00E94D3
:101B90002B0D80E194E00E942B0D8CE294E00E94DA
:101BA0002B0D88E494E00E942B0D84E694E00E94C3
:101BB0002B0D80E894E00E942B0D8BE39FEDAFE7A7
:101BC000BFE380939C0490939D04A0939E04B093E4
:101BD0009F0480E090E0A0E8BFEB8093A004909386
:101BE000A104A093A204B093A3048093A4049093AF
:101BF000A504A093A604B093A7041092A904109280
:101C0000A8041092AB041092AA041092AD04109292
:101C1000AC041092AF041092AE041092B104109272
:101C2000B0041092B3041092B2041092B404109253
:101C3000B50488E68093B60480E090E0A4E3B2E4C3
:101C40008093C5049093C604A093C704B093C804BE
:101C500080E090E0A7E0B3E48093C9049093CA04C5
:101C6000A093CB04B093CC048093CD049093CE0486
:101C7000A093CF04B093D0041092D1041092D30457
:101C80001092D2041092D4041092D5041092D6046B
:101C90001092D7041092D8041092D9041092DA044A
:101CA0001092DB041092DC041092DD041092DE042A
:101CB0001092DF048EE0E0EEF4E0DF011D928A95E1
:101CC000E9F7EBE2F3E087E090E09183808385E041
:101CD00090E0938382831482158216821782108685
:101CE000118612861386148615861686178681E05D
:101CF000808B118A128A138A148A158A168A178A87
:101D0000108E118E128E138E148E858F80A30895DF
:101D1000052E97FB1EF400940E949F0E57FD07D0DE
:101D20000E94A70E07FC03D04EF40C949F0E509512
:101D30004095309521953F4F4F4F5F4F08959095B7
:101D40008095709561957F4F8F4F9F4F0895A1E2C9
:101D50001A2EAA1BBB1BFD010DC0AA1FBB1FEE1F25
:101D6000FF1FA217B307E407F50720F0A21BB30B70
:101D7000E40BF50B661F771F881F991F1A9469F7EC
:101D800060957095809590959B01AC01BD01CF0148
:101D90000895A29FB001B39FC001A39F700D811D44
:101DA0001124911DB29F700D811D1124911D089564
:101DB0000E94C90EB7FF0895821B930B0895EE0F82
:101DC000FF1F0590F491E02D09945058BB27AA27D6
:101DD0000E94FD0E0C9477100E94691038F00E944A
:101DE000701020F039F49F3F19F426F40C9466101B
:101DF0000EF4E095E7FB0C946010E92F0E94881028
:101E000058F3BA17620773078407950720F079F42F
:101E1000A6F50C94AA100EF4E0950B2EBA2FA02D67
:101E20000B01B90190010C01CA01A0011124FF2787
:101E3000591B99F0593F50F4503E68F11A16F04082
:101E4000A22F232F342F4427585FF3CF4695379581
:101E50002795A795F0405395C9F77EF41F16BA0B46
:101E6000620B730B840BBAF09150A1F0FF0FBB1FF4
:101E7000661F771F881FC2F70EC0BA0F621F731F3D
:101E8000841F48F4879577956795B795F7959E3F9A
:101E900008F0B0CF9395880F08F09927EE0F97952B
:101EA000879508950E943C1008F481E008950E94EF
:101EB0006B0F0C9477100E94701058F00E946910FC
:101EC00040F029F45F3F29F00C94601051110C94FC
:101ED000AB100C9466100E94881068F39923B1F33C
:101EE000552391F3951B550BBB27AA276217730740
:101EF000840738F09F5F5F4F220F331F441FAA1FD4
:101F0000A9F335D00E2E3AF0E0E832D0915050408F
:101F1000E695001CCAF72BD0FE2F29D0660F771F3D
:101F2000881FBB1F261737074807AB07B0E809F023
:101F3000BB0B802DBF01FF2793585F4F3AF09E3FA8
:101F4000510578F00C9460100C94AB105F3FE4F3F3
:101F5000983ED4F3869577956795B795F7959F5FEB
:101F6000C9F7880F911D9695879597F90895E1E037
:101F7000660F771F881FBB1F621773078407BA0796
:101F800020F0621B730B840BBA0BEE1F88F7E095F1
:101F900008950E94D00F6894B1110C94AB1008956D
:101FA0000E94901088F09F5798F0B92F9927B75149
:101FB000B0F0E1F0660F771F881F991F1AF0BA95ED
:101FC000C9F714C0B13091F00E94AA10B1E0089591
:101FD0000C94AA10672F782F8827B85F39F0B93F83
:101FE000CCF3869577956795B395D9F73EF49095A0
:101FF0008095709561957F4F8F4F9F4F0895E8941E
:1020000009C097FB3EF490958095709561957F4F40
:102010008F4F9F4F9923A9F0F92F96E9BB279395EE
:10202000F695879577956795B795F111F8CFFAF4FE
:10203000BB0F11F460FF1BC06F5F7F4F8F4F9F4F2F
:1020400016C0882311F096E911C0772321F09EE88D
:10205000872F762F05C0662371F096E8862F70E0F3
:1020600060E02AF09A95660F771F881FDAF7880FCD
:102070009695879597F90895990F0008550FAA0B23
:10208000E0E8FEEF16161706E807F907C0F012168B
:102090001306E407F50798F0621B730B840B950B8E
:1020A00039F40A2661F0232B242B252B21F40895E3
:1020B0000A2609F4A140A6958FEF811D811D089580
:1020C00097F99F6780E870E060E008959FEF80ECEB
:1020D000089500240A94161617061806090608958E
:1020E00000240A9412161306140605060895092EF4
:1020F0000394000C11F4882352F0BB0F40F4BF2B63
:1021000011F460FF04C06F5F7F4F8F4F9F4F0895A2
:1021100057FD9058440F551F59F05F3F71F0479598
:10212000880F97FB991F61F09F3F79F0879508957D
:10213000121613061406551FF2CF4695F1DF08C09C
:10214000161617061806991FF1CF869571056105B9
:1021500008940895E894BB2766277727CB0197F961
:1021600008950E943C1008F48FEF08950E94C91052
:102170000C9477100E94691038F00E94701020F0C3
:10218000952311F00C9460100C94661011240C949B
:10219000AB100E94881070F3959FC1F3950F50E02B
:1021A000551F629FF001729FBB27F00DB11D639F09
:1021B000AA27F00DB11DAA1F649F6627B00DA11DAF
:1021C000661F829F2227B00DA11D621F739FB00D55
:1021D000A11D621F839FA00D611D221F749F3327C5
:1021E000A00D611D231F849F600D211D822F762F5E
:1021F0006A2F11249F5750409AF0F1F088234AF03B
:10220000EE0FFF1FBB1F661F771F881F91505040A6
:10221000A9F79E3F510580F00C9460100C94AB1010
:102220005F3FE4F3983ED4F3869577956795B7952D
:10223000F795E7959F5FC1F7FE2B880F911D969547
:10224000879597F908950E943C10880B990B089583
:0E22500081E090E0F8940C942D11F894FFCFEB
:10225E0001400140010000000000000000000000ED
:10226E0000010AD7233C000086430000003F000017
:10227E0000000AD7233C000040430000000000008D
:10228E0000000AD7233C00001643000000000000A7
:10229E00000000000000D40141016B0121029C01ED
:1022AE007A018E0100000000D802AB0208037F0203
:1022BE00A3028F028002596177206B503A20000DE5
:0E22CE000A006E616E00696E66006F76660033
:00000001FF
